:020000040800F2
:10000000C0090020A501000803240008A723000858
:1000100001240008550E0008592D000800000000BA
:10002000000000000000000000000000B1250008F2
:10003000BB0E00080000000005240008B3250008DE
:10004000BF010008BF010008BF010008BF01000890
:10005000BF010008BF010008BF010008BF01000880
:10006000BF010008BF010008BF010008BF01000870
:10007000BF010008BF010008BF010008590E0008B9
:10008000BF010008BF010008BF010008BF01000850
:10009000BF010008BF010008BF010008BF01000840
:1000A000BF010008BF010008BF010008BF01000830
:1000B000BF0100080000000000000000BF010008B0
:1000C000BF010008BF010008BF010008BF01000810
:1000D000BF010008BF010008BF010008BF01000800
:1000E000BF010008BF010008000000000000000080
:1000F0000000000000000000000000000000000000
:1001000000000000BF01000800000000BF0100085F
:100110000000000000000000BF010008BF0100084F
:10012000BF010008BF010008BF010008BF010008AF
:10013000BF010008000000000000000000000000F7
:10014000BF010008BF010008BF0100080000000057
:10015000BF010008BF010008BF010008BF0100087F
:10016000BF010008BF010008BF0100080000000037
:10017000BF010008BF0100080000000000000000EF
:10018000BF010008BF010008BF010008DFF810D060
:1001900000F00EFC004800475D380008AFF3008017
:1001A000C00900200648804706480047FEE7FEE7F2
:1001B000FEE7FEE7FEE7FEE7FEE7FEE7FEE7FEE717
:1001C000252600088D0100082DE9F05F0546002076
:1001D00092469B4688460646814640241BE02846B8
:1001E00041464746224600F0AAFA53465A46C01AEC
:1001F000914110D311461846224600F091FA2D1A6B
:1002000067EB01084F4622460120002100F088FAE2
:1002100017EB00094E41201EA4F10104DFDC484623
:1002200031462A46434600F000B830BCBDE8C09FC6
:10023000004870476C5A000810B50446FFF7F8FFF5
:100240000068005D00F0010010BD40EA01039B075B
:1002500003D009E008C9121F08C0042AFAD203E03B
:1002600011F8013B00F8013B521EF9D27047D2B29F
:1002700001E000F8012B491EFBD270470022F6E78F
:1002800010B513460A4604461946FFF7F0FF20460C
:1002900010BD421C10F8011B0029FBD1801A7047C9
:1002A000CBB203E00178994203D0401C521EF9D230
:1002B0000020704730B504460020034600E05B1C78
:1002C000934203D2E05CCD5C401BF8D030BD2DE9F9
:1002D000F04791460F4680460446002614F8015B1D
:1002E0002DB1FFF7A5FF0068405DC007F6D12B2DAB
:1002F00002D02D2D18D0641E4A463946204600F003
:1003000040FA27B13968A14201D1C7F800807105D0
:100310004FF002040BD54042002803DD02F07CFDC3
:100320000460A007BDE8F08746F48066E4E7002893
:10033000F8DA02F071FD04606FF00040F2E72DE999
:10034000FE4F804681EA0300C00F0C46009021F06A
:10035000004123F00045B8EB0200A94105D2404618
:10036000214690461C460B46024623F000401043AF
:1003700047D0270DC7F30A00C3F30A510290401A71
:10038000019040286BDAC3F3130040F4801B0098FF
:10039000924620B10023D2EB030A63EB0B0B0198CA
:1003A0005946C0F14002504600F0BAF906460D46E3
:1003B00050465946019A00F0D2F910EB080061410D
:1003C000002487EA115284EAE7731A4340D0009A66
:1003D00062B3019A012A4FEA075215DC001B61EB58
:1003E00002014FF0004202EA0752CDE90042001C30
:1003F00041F5801132462B4600F073FA03B000F04D
:1004000045B840462146F9E7001B61EB0201001C9C
:1004100041F5801300185B412018A2F5001747EB47
:10042000030140EAD570B6196D4111E06D084FEA3D
:10043000360645EAC0754FEA0752001B61EB020120
:10044000001C41F5801149084FEA30000019514164
:1004500032462B4603B000F01CB800F033BA0098C7
:10046000012240000023D0EB020263EBE07300980E
:1004700021464FEAE074B8EB000061EB0401E9E7C4
:1004800083F000435BE781F0004158E730BCBDE8F2
:10049000C08F30BCBDE8C04FFFF7DFBF2DE9FE4F76
:1004A00081EA030404F0004421F0004100944FF07D
:1004B000000B23F0004350EA01045ED052EA03042B
:1004C0005BD0C3F30A54C1F30A552C44A4F2F334AD
:1004D0000194A0FB0254C1F3130141F48011C3F352
:1004E000130343F4801301FB024400FB034E840A10
:1004F000970A44EA815447EA8357A4FB07680295A8
:100500008D0A05FB07854FEA932C04FB0C54270545
:10051000029D4FEA065847EA1637B5EB08056EEB21
:10052000070C870E920E47EA811742EA8312A7FB57
:100530000201B6EB0B0164EB00042B0D43EA0C3314
:100540005E1844EB1C50DA465146E7FB0201C5F346
:1005500013044FEA0B3343EA14534FEA0432019C6D
:1005600043EA0603A4F10C040294009CCDE900B414
:1005700000F0B7F903B000F003B800200146F9E736
:1005800030BCBDE8C08F2DE9F04D81EA030404F0D2
:10059000004B21F0004514464FF0000A23F00041C3
:1005A00050EA050220D054EA01021DD0C5F30A57D3
:1005B0000246C5F31303C1F31300C1F30A5640F416
:1005C000801543F48013A7EB0608101BD64608F2EB
:1005D000FD3873EB050002D308F1010801E0921821
:1005E0005B41B8F1000F03DA00200146BDE8F08D51
:1005F00000204FF48011064684460EE0171B73EB73
:10060000050705D3121B63EB050306434CEA010CF7
:1006100049084FEA300092185B4150EA0107EDD1DA
:1006200052EA030012D082EA040083EA050108437B
:1006300005D0101BAB4106D20122002306E00022A8
:100640004FF0004302E06FF0010253101AEB060076
:100650004CEB085110EB0A0041EB0B01BDE8F04DEB
:1006600000F030B90EB5C10F80EAE0700844CA0747
:10067000002140F233438DE80E000A460B4600F09D
:1006800030F903B000BD70B5C1F30A5201F0004566
:100690000024C1F3130140F2FF3341F480119A4268
:1006A00001DA002070BD40F233439A42A2F2334295
:1006B00003DC524200F043F800E090402C43F1D0BC
:1006C000404270BD30B5041E71F1000404DB4FF0F0
:1006D0000044404264EB0101141E73F1000405DB89
:1006E0001C464FF00043524263EB0403994208BF9B
:1006F000904230BD30B50B46014600202022012437
:1007000009E021FA02F59D4205D303FA02F5491BDF
:1007100004FA02F52844151EA2F10102F1DC30BDF5
:10072000202A04DB203A00FA02F1002070479140B1
:10073000C2F1200320FA03F3194390407047202AA6
:1007400004DB203A21FA02F00021704721FA02F37B
:10075000D040C2F120029140084319467047202A38
:1007600006DBCB17203A41FA02F043EAE07306E0D9
:1007700041FA02F3D040C2F12002914008431946E9
:1007800070472DE9F05F82460078002715468B46BA
:100790000AF10104B946302801D09DB113E014F8E4
:1007A000010B0127782803D0582801D045B10AE071
:1007B0000DB1102D07D10027102514F8010B02E010
:1007C000082500E00A250026B0460EE005FB0800DB
:1007D00005FB06F1012701EB10461FFA80F8B6F57C
:1007E000803F00D3B94614F8010B294600F0F2F817
:1007F0000028EBDABBF1000F05D00FB1641E00E05A
:100800005446CBF80040B9F1000F06D002F004FBCB
:1008100002210160C81E00F003B848EA0640FAE76A
:1008200030BCBDE8C09F00000FB4002300B589B004
:100830000CA900910B996FF00042CB601E4B069300
:100840001E4B07930423CDE901321D4A089202464C
:100850006B46002000F060F909B05DF814FB70B53C
:1008600086B006464FF0FF300091CDE9010100202F
:1008700015460C4604903246694604A8FFF7D4FF9B
:1008800002460498211825B108B1084600E0204628
:100890002860049800280DD0002A02DD00988842C4
:1008A00008D0081B0094CDE901043246694604A82B
:1008B000FFF7BAFF06B070BD570D0008750D0008B0
:1008C0003902000810B5141E73F1000408DA401C48
:1008D00041F1000192185B411A4301D120F001005F
:1008E00010BD2DE9F04D92469B4611B1B1FA81F24F
:1008F00002E0B0FA80F220329046FFF711FF044682
:100900000F4640EA0A0041EA0B0153465A460843A3
:1009100013D0114653EA010019D0C8F140025046E5
:10092000FFF70DFF05460E46504659464246FFF773
:10093000F7FE084305D0012004E020463946BDE813
:10094000F08D0020054346EAE0762C4337430A98B1
:100950006305E40AA0EB08000022FD0A44EA4754BC
:100960000A3002D500200146E9E701051019694166
:10097000DDE9084500196941BDE8F04DA2E7C1F382
:100980000A52C1F3130140F2FF3341F480119A423D
:1009900002DA00200146704740F233439A42A2F245
:1009A000334202DC5242FFF7CABEFFF7B9BE000075
:1009B000064C074D06E0E06840F0010394E80700AC
:1009C00098471034AC42F6D3FFF7E4FB605B0008B5
:1009D000805B00083A2800D2303820F02002412AFB
:1009E00001D3A2F13700884201D34FF0FF307047A6
:1009F0002DE9FF4F087883B09946FF2805D0491CA0
:100A00002D2804D00024002008E000200BE0012461
:100A1000F9E700EB800003EB4000491C0B78FF2B4B
:100A2000F7D104B1404200230293147819461D46C1
:100A30002D2C01D02B2C04D1521C2D2C13D0002492
:100A40000294AA461478FF2C0FD00A25A3FB057840
:100A500001FB05814FF0000C03FB0C11521CE31944
:100A60004AEB0101EEE70124EAE7814453EA010081
:100A700002D019F5C87F06DA03980021C0E90011F9
:100A800007B000F065B90025AE4E2F46DFF8B882FA
:100A9000184600F080F9CDE90001B9F1000002DA52
:100AA000C9F1000400E004460023A74A1AEB030B37
:100AB00042EB045A12E0E00707D02A463346384694
:100AC0004146FFF7EBFC074688462A463346104668
:100AD0001946FFF7E3FC05460E466410002CEAD1E8
:100AE000DDE90001B9F1000F5A46534606DAFFF777
:100AF0004AFD3A464346FFF746FD05E0FFF7CEFCC8
:100B00003A464346FFF7CAFC029A0AB181F0004117
:100B1000039AC2E90001B3E72DE9FF4F1F468DB0EC
:100B2000D7E901464FF0FF382E2045464FF0000927
:100B30000B90B9696D1C0E988847396A82468847C0
:100B40000028F6D1BAF1FF3F0AD024F4D064002E79
:100B500011DDBAF12B0F08D0BAF12D0F0BD102E045
:100B6000404611B08DE744F48064B9696D1C0E985D
:100B700088478246761E6946600501D52D2000E033
:100B80002B208DF8000001F1010B0DF1200809E088
:100B9000B9696D1C0E98884782460F9844F400741A
:100BA000761E0560002E02DDBAF1300FF0D00B99F1
:100BB0008A453ED144F0800406E00F99681CA9F1F3
:100BC000010944F400740860B9696D1C761E0E9822
:100BD000884782463028F0D02BE00B998A4505D112
:100BE000200603D444F08004761E18E0504602F03C
:100BF00000FA08B30DF11301761E44F400748B451E
:100C000008D2AAF130000BF8010B200607D5A9F194
:100C1000010003E0200602D409F101008146A0058D
:100C200002D50F99681C0860B9696D1C0E98884739
:100C30008246002ED1DC53E0002E51DDBAF1650F63
:100C400002D0BAF1450F4BD1A00549D5B9696D1C49
:100C500024F44074761E0E9888478246002E0CDDE0
:100C60002B2804D0BAF12D0F07D144F48074B96950
:100C70006D1C0E9888478246761EE00501D52D2111
:100C800000E02B2108F8011BCDF82C8021E00DF1AC
:100C90002901761E44F4007488450CD2AAF1300074
:100CA00010F0FF0088F8000002D10B99884509D99F
:100CB00008F1010806E0E00501D5244801E042F210
:100CC0000F708146B9696D1C0E98884782460F984F
:100CD0000560002E04DD504602F08BF90028D6D1C5
:100CE000F9690E988847FF208BF8000088F800000B
:100CF0000020069007904B466A4608A906A8FFF711
:100D000077FEA00502D46FF001002AE714F0240F4B
:100D10000AD0E00714D1DDE906123868031D3B60F4
:100D20000068C0E900120BE0DDE9060100F03FF8C1
:100D30000146E00704D13868021D3A60006801608E
:100D400028460EE7000014400000F03FF1D8FFFFF6
:100D500030BCBDE8C08F426842B1016811F8013B68
:100D600023B1521EC0E90012184670470121C1602C
:100D7000881E704742685AB1C368016843B98368E6
:100D80008B4205D0491E521CC0E90012002070475A
:100D90004FF0FF3070470EB540F23342029200220E
:100DA000CDE900221346FFF79CFD03B000BD01F022
:100DB000004330B421F0004150EA010206D00A0D90
:100DC000A2F56072C1F31301002A02DC30BC0020DE
:100DD0007047440F44EAC104C100E01830BC00EB86
:100DE000C250AFF300800029A8BF7047401C4900E3
:100DF00008BF20F00100704710B4B0FA80FC00FA80
:100E00000CF050EA010404BF10BC704749B1CCF1AA
:100E1000200421FA04F411FA0CF118BF0121214336
:100E20000843A3EB0C01CB1D4FEA00614FEA1020F1
:100E300042BF002010BC704700EBC3501044002993
:100E4000A4BF10BC7047401C490008BF20F001003F
:100E500010BC7047FEE7000010B504A001F07EFF53
:100E6000BDE81040084800F05DB90000444D413134
:100E70005F4368616E6E656C355F49525148616EC3
:100E8000646C65720D0A0000F000002030B590F827
:100E9000444004F01C050124AC40056C6C600468FF
:100EA00063608368102B036803D099600068C26098
:100EB00030BD9A600068C16030BD70472DE9F047D1
:100EC0000F46002A77D00C2A75D8D0E9031CD0E948
:100ED0000145D0F814900668E24693B388181828A4
:100EE00001D280466FE0A0F11808012C16D0032C27
:100EF00014D0052C12D0072C10D0082C0ED00A2CA0
:100F00000CD0042C0DD0062C0BD0092C09D00B2CA6
:100F100007D0022C0AD00C2C14D054E01F2D13D370
:100F200001E01E2D10D30125641C4CE01D2D05D0C1
:100F30001C2D09D1F0B201F037FA28B9012503249C
:100F400041E007E01F2D01D26D1C3CE001252C463D
:100F5000761C38E09142A1EB0200C2D200F11808E1
:100F6000022C16D0042C14D0062C12D0082C10D031
:100F7000092C0ED00B2C0CD0052C0ED0072C0CD02D
:100F80000A2C0AD00C2C08D0032C0BD0012C13D027
:100F900019E0012D12D81F2502E0012D0ED81E25C3
:100FA000641E10E0012D09D1F0B201F0FDF928B95D
:100FB0001C25022407E00CE0012D01D96D1E02E082
:100FC0001F250C24761E381DC7F814903E6080E85B
:100FD0003005BDE8F08710B500F004F8BDE810401A
:100FE00001F082BE70B5244C9EB0E06C40F002006F
:100FF000E064E06C00F002001C90E06C40F0020045
:10100000E064E06C022600F0020000251C900096CF
:101010000995684600F05CFB206E40F48040206635
:10102000206E072400F480401C904020CDE9170674
:1010300001201B94CDE91906104E17A9304600F087
:1010400089F98020179017A91B94304600F082F987
:101050000C480B4901604FF4E131C0E901150C2146
:10106000C560C0E904518561C5610562456201F052
:101070006BF81EB070BD0000001002400004004874
:10108000003801403801002030B590B101680A688D
:1010900022F001020A60204C036814211F4AA34277
:1010A00009D21F4C1C44B4FBF1F18900C0E91021A6
:1010B0000BE0012030BD184C64421C44B4FBF1F13C
:1010C000890041641449083901640021196090F8CD
:1010D000443003F01C040123A340046C6360046CDF
:1010E0000F23944202D152F8A84F02E00A4AA032DC
:1010F000146890F8445005F01C05AB409C43146004
:10110000C162016341638163C16380F8251080F887
:101110002410002030BD00000804024000000240FE
:10112000F8FFFDBFF0B4016C0D6801680C6890F821
:10113000442002F01C06042202FA06F32B4211D0CE
:1011400063070FD50B689B0603D40B6823F00403D9
:101150000B6090F8441001F01C018A40016C4A6059
:10116000016B26E0022202FA06F72F424FF0000C34
:101170004FF0010321D0A7071FD50C68A40605D4A2
:101180000C6824F00A040C6080F82530184B0168C4
:10119000994290F8441001F01C0102FA01F202D9C0
:1011A00014490A6002E0124980394A6080F824C07C
:1011B000C16A00291AD0F0BC08470822B2402A426E
:1011C00014D0220712D50A6822F00E020A6090F8A5
:1011D0004410026C01F01C0103FA01F15160C36379
:1011E00080F8253080F824C0416BE2E7F0BC7047FE
:1011F000800002400404024010B568B12C4C026823
:1012000014232C49A24209D22B4C1444B4FBF3F30F
:101210009B00C0E910130BE0012010BD244C644278
:101220001444B4FBF3F39B004364214B083B036479
:10123000022380F82530136847F6F074A343136047
:10124000D0E902231A43D0E9043423431A438369C3
:101250001A43C3691A43036A1A4303681C6822438A
:101260001A608268B2F5804F19D0036C0F228B424E
:1012700002D151F8A83F02E00D49A0310B6890F867
:10128000444004F01C04A24093430B6090F84430A7
:10129000426803F01C039A400B681A430A6000215D
:1012A000C163012280F8252080F82410084610BD73
:1012B0000804024000000240F8FFFDBF70B504467C
:1012C00090F82400002501280ED0012084F8240085
:1012D00094F825600020012E08D08021E16384F875
:1012E00024000125284670BD022070BD022684F826
:1012F0002560E0632068066826F001060660204647
:10130000FFF7C4FD206B00282068016802D041F07F
:101310000E0106E021F0040101602068016841F03F
:101320000A0101602068016841F001010160D9E70C
:1013300070B5044600F0FAF80546601C02D0044877
:101340000078044400F0F2F8401BA042FAD370BDCC
:10135000000000202DE9F04FDFF8AC9100230325B9
:10136000A9F1040B85B04FF0010C0F2709F1040A15
:10137000ABF1040EBFE000BF0CFA03F6324075D0AB
:101380000C7904F00304012C01D0022C1BD18468D9
:1013900000945C0005FA04F80494009C24EA080414
:1013A0000094D1F80C80049C08FA04F8009C48EAE8
:1013B0000408C0F808804468B4430E79C6F30016E8
:1013C0009E40264346600C79E443A4070AD0C468D3
:1013D0004FEA430805FA08F6B4438E6806FA08F6A1
:1013E0002643C6600C7904F00304022C10D1DC08FB
:1013F00000EB84040294246A5E074FEAD66807FA79
:1014000008F6B4430E6906FA08F62643029C2662E3
:1014100004684FEA430805FA08F6B4430E7906F06B
:10142000030606FA08F6264306604C6814F4403FAB
:1014300060D0364C266E46F001062666246E23F0F8
:10144000030604F001040094314C34440294A4686F
:101450009E074FEA167807FA08F6B443B0F1904FAA
:1014600005D02C4EB04204D1012612E042E0002605
:101470000FE0294EB04201D102260AE0274EB042C9
:1014800001D1032605E0264EB04201D1042600E03A
:10149000072606FA08F62643029CA660D9F80060E3
:1014A0004C46D1F8048096435FEAC82800D516431D
:1014B0002660DAF800405646D1F8048094435FEA8B
:1014C000882800D514433460DBF800405E46D1F82C
:1014D000048094435FEA883800D514433460DEF812
:1014E00000407646D1F8048094435FEAC83800D5BE
:1014F000144334605B1C0A6832FA03F47FF43CAF97
:1015000005B000F00FB800000804014000100240D0
:10151000000001400004004800080048000C00489A
:101520000010004830BCBDE8C08F00000148806852
:1015300070470000000000200248816802781144D2
:10154000816070470000002010B50024032000F0E7
:1015500071F80F2000F008F808B1012401E000F054
:1015600025F8204610BD000070B50E4E054600243B
:10157000307898B14FF47A71B1FBF0F00A490968FC
:10158000B1FBF0F000F0CAFD40B9102D06D20022E8
:101590002946501E00F02EF8756000E00124204618
:1015A00070BD0000000000200C000020094808B5B4
:1015B000016E41F001010166016E01F0010100912F
:1015C000816D41F080518165806D00F08050009008
:1015D00008BD000000100240002809DB00F01F02D7
:1015E000012191404009800000F1E020C0F8001185
:1015F00070470000F0B40E4B1B680C46C3F3022387
:10160000C3F10705042D00D90425191D072901D2AE
:10161000002300E0DB1E012606FA05F1491E2140E9
:1016200099409E40761E16403143F0BC01F0E4BB69
:101630000CED00E0064900F0070208684FF6FF03D2
:10164000184040EA0220034A104308607047000037
:101650000CED00E00000FA051649B0F5007F0868BF
:10166000C0F3412009D0022805D0086820F4C060EA
:1016700040F480600860002070470128FBD00868B3
:1016800020F4C06040F4007008600B48322200680B
:1016900050430A4AB0FBF2F0401C00E0401E4A6989
:1016A000520501D50028F9D148694005E3D503204A
:1016B00070470000007000400C00002040420F0006
:1016C0000248006800F4C0607047000000700040ED
:1016D0002DE9F84F044600270088A84D3E46000536
:1016E00015D5606C60B1B0F5000F04D0B0F5400FB7
:1016F0002BD001270AE0E86840F48030E86024E05D
:101700000021201D00F080FE07001ED03E4620680C
:1017100080033AD5A86D4FF00008C00009D4A86D29
:1017200040F08050A865A86D4FF0010800F080508F
:101730000090DFF84CA2DAF8001041F48071CAF88A
:101740000010FFF7F3FE814610E0D5F88800616CC9
:1017500020F440000843C5F88800D8E7FFF7E6FE0C
:10176000A0EB0900022801D9032705E0DAF8000000
:10177000C005F3D5002F7DD04FEA0706B8F1000F62
:1017800003D0A86D20F08050A8652078C00707D04E
:10179000D5F88800216A20F003000843C5F88800C6
:1017A0002078800707D5D5F88800616A20F00C0002
:1017B0000843C5F888002078400707D5D5F8880089
:1017C000A16A20F030000843C5F888002078800620
:1017D00007D5D5F88800E16A20F440600843C5F8D1
:1017E00088002088800507D5D5F88800E16B20F4B3
:1017F00040200843C5F888002088400507D5D5F863
:101800008800216C20F440100843C5F88800207837
:10181000400607D5D5F88800216B20F440500843D6
:10182000C5F888002078000607D5D5F88800616BD8
:1018300020F440400843C5F888002088C00507D53B
:10184000D5F88800A16B20F440300843C5F8880023
:1018500020684FF0006700034FF0806850D5D5F83E
:101860008800A16C20F040600843C5F88800A06C97
:10187000B84200E005E03BD1E86840F48010E86041
:101880003EE0D5F8900010F4407014D0A16D814274
:1018900011D0D5F89000D5F8901020F4407041F4A4
:1018A0008031C5F89010D5F8901021F48031C5F83A
:1018B0009010C5F89000C00711D0FFF737FE07461B
:1018C00041F2883907E000BFFFF730FEC11B4945F0
:1018D00001D9032652E7D5F890008007F4D5D5F852
:1018E0009000A16D20F440700843C5F8900045E7D2
:1018F000404505D10121201D00F086FD00B10646BE
:101900002068400317D5D5F88800E16C20F04060CE
:101910000843C5F88800E06CB84204D1E86840F498
:101920008010E86007E0404505D10121201D00F04E
:101930006BFD00B106462088400411D5D5F888001B
:10194000216D20F040500843C5F88800206DB0F1AB
:10195000805F05D10221201D00F056FD00B1064632
:101960002088000406D555F8880F616D20F080406E
:1019700008432860304600F005B80000001002401F
:101980000070004018BCBDE8E08F00002DE9F04772
:101990000F4605006BD0494E306800F00700B84292
:1019A00009D2306820F0070038433060306800F01A
:1019B0000700B8425BD12878414C80070AD5A86857
:1019C000A16801F0F001884204D9A16821F0F0017A
:1019D0000143A1602878C0072CD06868032811D083
:1019E000022812D0216898B1490500293FDAA16880
:1019F00021F003010143A160FFF798FD804641F209
:101A0000883910E021688901EFE721688903ECE754
:101A10008907EAE7FFF78AFDA0EB0801494502D9EB
:101A20000320BDE8F087A068696800F00C00B0EB07
:101A3000810FEFD1287880070AD5A868A16801F046
:101A4000F001884204D2A16821F0F0010143A160B5
:101A5000306800F00700B8420BD9306820F007006A
:101A600038433060306800F00700B84201D00120F0
:101A7000D7E72878400705D5A068E96820F4E0603A
:101A80000843A0602878000706D5A068296920F4DB
:101A9000605040EAC100A06000F03EF8A168094A29
:101AA000C1F30311515C01F01F01C84006490860F1
:101AB00006480068BDE8F047FFF756BD0020024029
:101AC00000100240905900080C0000200400002083
:101AD0000548064900688968054AC1F30221515C3E
:101AE00001F01F01C84070470C00002000100240A8
:101AF000D05900080548064900688968054AC1F3BD
:101B0000C221515C01F01F01C84070470C00002049
:101B100000100240D059000870B52549002318462E
:101B20008A68CC6812F00C0204F00306214C4FEADC
:101B3000640509D00C2A05D0042A32D0082A00D125
:101B4000284670BD012E10D10B681B0704D4D1F8B4
:101B50009430C3F3032302E00B68C3F30313164E60
:101B600056F82330DAB10C2AEBD1C86800F0030034
:101B7000022818D0032818D01846CA68CB68C2F3C8
:101B80000212C3F306234343521CB3FBF2F2C868AC
:101B9000C0F34160401C4000B2FBF0F070BD18463D
:101BA00070BD204670BD2046E7E72846E5E7000007
:101BB000001002400024F400A05900082DE9F84369
:101BC00004006FD0FA4DA86800F00C06E86800F039
:101BD00003072078C00664D576B10C2E01D1012F01
:101BE0000AD0A069002828687AD040F00100286057
:101BF000FFF79CFC80465DE02868800702D5A0695D
:101C00000028DED0216A2868000703D5286800F084
:101C1000F00004E0D5F89400F02202EA10108142AE
:101C200016D9084600F086FC00283BD1286840F011
:101C3000080028602868216A20F0F0000843286026
:101C40006868E16920F47F4040EA0120686016E09E
:101C5000286840F0080028602868216A20F0F00019
:101C6000084328606868E16920F47F4040EA012069
:101C7000686026B9206A00F05DFC0028D5D1FFF726
:101C80004BFFA968CB4AC1F30311515C01F01F015E
:101C9000C840C9490860C9480068FFF765FC0028CA
:101CA0007ED12EE0CAE000BFFFF740FCA0EB0800A9
:101CB000022876D828688007F6D5286840F0080002
:101CC00028602868216A20F0F000084328606868CE
:101CD000E16920F47F4040EA0120686011E0FFE7FD
:101CE00020F001002860FFF721FC804606E000BFDD
:101CF000FFF71CFCA0EB08000228DAD82868800750
:101D0000F6D42078C00740D0082E18D00C2E01D170
:101D1000032F14D06068B0F5803F17D0B0F5A02F26
:101D2000286817D020F480302860286820F48020AC
:101D300028606068E0B1FFF7F9FB804614E028688E
:101D4000800322D56068002878D01EE0286840F41F
:101D50008030EDE740F480202860F7E7FFF7E6FBEE
:101D6000A0EB08006428A4D828688003F6D50CE00E
:101D7000FFF7DCFB804605E0FFF7D8FBA0EB08008F
:101D8000642896D828688003F6D4207880073BD54D
:101D9000042E11D00C2E01D1022F0DD0E06801E0ED
:101DA000AAE1FFE0002828681ED040F48070286077
:101DB000FFF7BCFB07460CE0286840050CD5E0683F
:101DC0000028C1D008E000BFFFF7B0FBC01B02280D
:101DD00093D828684005F7D56868217C20F0F85032
:101DE00040EA016068600FE020F480702860FFF72F
:101DF0009DFB074605E000BFFFF798FBC01B0228CC
:101E0000B1D828684005F7D42078000729D5606943
:101E10000028D5F8940012D040F00100C5F89400D5
:101E2000FFF784FB074604E0FFF780FBC01B022896
:101E300099D8D5F894008007F6D512E02BE120F070
:101E40000100C5F89400FFF771FB074605E000BFED
:101E5000FFF76CFBC01B022885D8D5F894008007DB
:101E6000F6D42078400766D5A86D0027C00008D4B6
:101E7000A86D40F08050A865A86D012700F0805043
:101E800000904F480168C90512D40168814641F4A9
:101E900080710160FFF74AFB804605E0FFF746FBD3
:101EA000A0EB080002287DD8D9F80000C005F5D5C0
:101EB000A068012816D00528D5F8900017D020F08A
:101EC0000100C5F89000D5F8900020F0040000BF94
:101ED000C5F89000A06841F28839C0B1FFF726FB31
:101EE00080460FE0D5F8900040F00100F0E740F0A8
:101EF0000400C5F89000F5E7FFF718FBA0EB080118
:101F000049454FD8D5F890008007F5D50EE0FFF78A
:101F10000DFB804606E000BFFFF708FBA0EB0801C1
:101F200049453FD8D5F890008007F5D41FB1A86D7A
:101F300020F08050A8652078800628D5606A0028A7
:101F4000D5F8980012D040F00100C5F89800FFF7CE
:101F5000EDFA074605E000BFFFF7E8FAC01B0228CC
:101F600020D8D5F898008007F6D510E020F00100C1
:101F7000C5F89800FFF7DAFA074604E0FFF7D6FA4B
:101F8000C01B02280ED8D5F898008007F6D4A06AA6
:101F9000F0B3022816D00C2E7DD0286820F0807077
:101FA000286000E0A7E0FFF7C1FA0446A6E00000C1
:101FB00000100240905900080C000020040000208E
:101FC00000700040E868E26A00F00301914228D105
:101FD000216B00F0700209011039914221D1626B2E
:101FE00000F4FE41B1EB022F1BD194F8382000F031
:101FF0007841B1EBC26F14D1A18F00F4C00249083F
:102000004905A1F5001191420BD194F8401000E070
:102010006AE04908490600F0C060A1F10071814200
:102020004BD00C2E73D02868400170D4286820F063
:1020300080702860FFF77AFA064604E0FFF776FA28
:10204000801B022857D828688001F7D4F4E90B01D7
:102050006FF00F0202EB01110843218A5204490874
:1020600002EB4151A26841EA02210843217D4FF071
:102070007E42490802EB41610843217B40EAC1608E
:10208000E968244A11400843E860286840F08070FD
:102090002860E86800E03AE040F08070E860FFF710
:1020A00045FA044605E000BFFFF740FA001B02288E
:1020B00021D828688001F7D527E02868800124D43A
:1020C000286840F080702860E86840F08070E86020
:1020D000FFF72CFA044604E0FFF728FA001B022859
:1020E00009D828688001F7D50FE000BFFFF71EFA76
:1020F000001B022802D90320BDE8F883286880016C
:10210000F4D4E86804490840E8600020F4E70120BE
:10211000F2E700008C809D01FCFFEEFE10B5401E32
:10212000B0F1807F01D3012010BD4FF0E024606149
:102130000F21601700F060FE0020A06107202061E1
:10214000002010BD7047704710B5040002D0E06F4A
:1021500010B107E0012010BD002084F8780020466F
:1021600000F025F82420E0672068016821F00101D3
:102170000160606A10B1204600F05CFA204600F071
:10218000CDFB0128E7D02068416821F490414160EF
:102190002068816821F02A0181602068016841F08F
:1021A000010101602046BDE8104000F0A7BA704769
:1021B0002DE9F84F0446D0F880009B4616460D46A0
:1021C000202802D0022000F06BB87DB376B3002740
:1021D000C4F884702220C4F8800027661C34FFF7FE
:1021E000A5F9A6878246E68754F8140C4FF480536D
:1021F000FF211C3C984204D12269A2B940F2FF1190
:1022000011E07F2268B1B0F1805F10D0A4F85C705B
:10221000B4F85C70984201D1206978B12E4600254F
:102220000DE026693EB9A4F85C10F1E728E02169C9
:1022300009B13F21F7E7A4F85C20E9E700264FF059
:10224000200807F0FF0900BFB4F85A0020B3534636
:10225000002220212046CDF800B000F0AFFC18B1DC
:10226000C4F880800320AEE72068406A56B100EAD7
:10227000090006F8010B00BFD4F88000222805D021
:102280000120A0E7384025F8020BF5E7B4F85A0022
:10229000401EA4F85A00D7E7C4F88080002092E7D7
:1022A00018BCBDE8E08F000030B4D0F88030202B9F
:1022B00002D0022030BC7047A9B1A2B1002303664E
:1022C0000A4C0368A3420BD05B681B0208D5046864
:1022D00054E8003F43F0806344E80035002DF6D118
:1022E00030BC00F01BBC0120E4E70000008000408F
:1022F000704770472DE9F84F0446C06F9846154661
:102300000E46202802D0022000F04AB886B37DB3E2
:102310000020C4F884004FF02109C4F87C90FFF736
:1023200005F9A4F850508246A4F85250A068B0F5C0
:10233000805F01D1206910B13546002600E00025FC
:102340005FF02007B4F8520053464FF00002CDF87A
:102350000080D0B18021204600F030FCD0B94DB1D2
:1023600015F8010B21688862E16F39EA010006D097
:102370000120C9E736F8020BC0F30800F2E7B4F811
:102380005200401EA4F85200DCE74021204600F035
:1023900015FC10B1E7670320B6E7E7670020B3E755
:1023A00018BCBDE8E08FFEE700F5FA61800701D0B8
:1023B000002070474FF4C870B1FBF0F200FB121020
:1023C00030B16420B1FBF0F200FB12100028F0D015
:1023D00001207047094808B5C16C41F08001C16413
:1023E000C16C01F080010091C16C41F00101C16438
:1023F000C06C00F00100009008BD00000010024019
:10240000FEE7FEE7704700002DE9F041444C054629
:102410008846E0680026810728680DD0E16801F051
:102420000301814216D1A8B1E0686968C0F30210C7
:10243000401C88420ED120E0012804D0022805D09B
:10244000032807D108E02168890701E021684905D0
:10245000002907DB01265FE02168890302D4216897
:102460004903F5E7E1686A686FF00F0321F0730133
:1024700003EB021211430143E160206820F0806009
:102480002060FFF753F8074605E000BFFFF74EF85E
:10249000C01B022837D820680001F7D4B8F1000F1C
:1024A00018D0B8F1010F1DD0287D4FF07E414008B3
:1024B00001EB4060A96840EA01202169194A1140F6
:1024C00008432061206840F080602060FFF72EF80C
:1024D00007461AE0A868297B000240EAC16021692A
:1024E000114AECE7288A1149400801EB4050A968DD
:1024F00040EA012021690E4AE1E700BFFFF716F824
:10250000C01B022801D9032606E020680001F5D58A
:102510002069A969084320613046BDE8F0810000C8
:1025200000100240FF80FFF9FF80FF070000E0FF7E
:10253000FF809FFFF8B51C4D06460024A86DC00023
:1025400002D5FFF7BDF80DE0A86D40F08050A865FA
:10255000A86D00F080500090FFF7B2F8A96D21F04F
:102560008051A965B0F5007F04D0802E07D94FF0C7
:1025700003040AE0802E08D9A02E01D804E001D17E
:10258000022402E0702E00D101240848016821F0E5
:10259000070121430160006800F00700A04201D05C
:1025A0000120F8BD0020F8BD0010024000200240CC
:1025B0007047FEF7C1BF10B596B044216846FDF7DD
:1025C0005DFE142111A8FDF759FE4FF40070FFF7CE
:1025D00043F808B172B6FEE701210804CDE9001006
:1025E000022003240A90CDE90B4114210D9107210B
:1025F000CDE90E1010906846FFF7E0FA08B172B608
:10260000FEE70F20CDE911040020139014901590DF
:10261000042111A8FFF7BAF9002801D072B6FEE72D
:1026200016B010BD0248016841F4700101607047A6
:1026300088ED00E090F82410090706D501684A6883
:10264000436B22F400421A434A6090F82410C907F1
:1026500006D001684A68836A22F400321A434A604D
:1026600090F82410890706D501684A68C36A22F4E5
:1026700080321A434A6090F82410490706D5016851
:102680004A68036B22F480221A434A6090F82410AF
:10269000C90606D501688A68836B22F480521A4302
:1026A0008A6090F82410890606D501688A68C36B91
:1026B00022F400521A438A6090F82410490611D57A
:1026C00001684A68036C22F480121A434A60016C64
:1026D000B1F5801F06D101684A68436C22F4C0023C
:1026E0001A434A6090F82410090606D501684A6822
:1026F000806C22F4002202434A6070472DE9F843BF
:1027000000260446C0F88460FEF710FF804620686B
:1027100000684FF0200500076FF07E4712D5434652
:10272000002229042046009700F048FA50B12168A1
:1027300051E8000F20F0800041E80002002AF6D1A5
:10274000E56721E020680068400722D54346002263
:102750004FF480012046009700F030FAC8B121689C
:1027600051E8000F20F4907041E80002002AF6D1F1
:102770002068083050E8001F21F0010140E80012F5
:10278000002AF5D1C4F8805084F878600320BDE8B1
:10279000F883E567C4F8805044F8606F6660267679
:1027A0000020F4E770B5846AE06FD4F880502168A7
:1027B0008968090604D5212802D1204600F0A2F834
:1027C00020688068400604D5222D02D1204600F002
:1027D00073F8D4F8840040F01000C4F88400204658
:1027E000FFF7B1FC70BD10B50146806A0A68126837
:1027F00092062BD4026852E8003F23F4807342E82B
:102800000034002CF6D10268083252E8003F23F071
:10281000010342E80034002CF5D10268083252E886
:10282000003F23F0400342E80034002CF5D1202281
:10283000C0F88020026E012A08D1036853E8002FF7
:1028400022F0100243E80024002CF6D10022426658
:10285000026E012A02D0FFF74BFD10BD09684968DE
:10286000B0F8582089B28A4201D9A0F85A10B0F8BD
:102870005A10511A89B2FFF765FC10BD10B5024617
:10288000806A01214166016E012902D0FFF731FD06
:1028900010BDB0F858104B08A0F85A3012685268B2
:1028A00092B2914201D3A0F85A20B0F85A20891A66
:1028B00089B2FFF747FC10BD016851E8002F22F4F0
:1028C000907241E80023002BF6D10168083151E8ED
:1028D000002F22F0010241E80023002BF5D1016E08
:1028E000012908D1026852E8001F21F0100142E8D6
:1028F0000013002BF6D12021C0F8801000210166C2
:1029000081667047026852E8001F21F0C00142E86A
:102910000013002BF6D12021C16770472DE9F0414B
:102920000446016880682269E369104362690025F2
:102930001A431043714F0A68714B1A4002430A60F0
:1029400020684168E26821F44051114341602168E8
:10295000A069B94201D0226A10438A6822F4306229
:1029600002438A606749236867488B420DD1D0F8DB
:10297000880010F0030006D0012847D0022843D079
:10298000032830D144E001212EE060498B420BD175
:10299000D0F8880010F00C0034D0042836D0082875
:1029A00032D00C281FD133E059498B420BD1D0F8DB
:1029B000880010F0300025D0102827D0202823D000
:1029C000302810D124E0BB420DD1D0F8880010F49B
:1029D000406017D0B0F5806F18D0B0F5006F13D0FD
:1029E000B0F5406F14D010214A4A00264FF4004041
:1029F000BB422FD171B102290FD004290FD0082971
:102A000073D10FE00021EFE70221EDE70421EBE7AE
:102A10000821E9E7FFF75CF803E0104602E0FFF762
:102A20007BF8E8B3626802EB420181425DD8B0EB0B
:102A3000023F5AD8010E03025008181871410023B2
:102A4000FDF7C2FB344AA0F5407191424DD8216890
:102A5000C8604BE0E3694FF6EF77834228D109293C
:102A600043D2DFE801F005080B420D42424210005C
:102A7000FFF72EF806E0FFF73DF803E0104602E00E
:102A8000FFF74AF860B14100606801EB5001B1FB0B
:102A9000F0F0A0F11001B94227D84FF6F07100E034
:102AA00024E00140C0F3420001432068C1601DE002
:102AB00009291AD2DFE801F005080B190D191919B7
:102AC0001000FFF705F806E0FFF714F803E01046E2
:102AD00002E0FFF721F848B1616800EB5100B0FB5C
:102AE000F1F0A0F11001B94205D90125A6662846EA
:102AF000E666BDE8F08180B2A9E7000000800040F2
:102B0000F369FFEF0038014000100240004400402C
:102B1000004800400024F400FFFC0F0070B5416540
:102B2000A0F8582000210446C0F884102220C4F8E0
:102B30008000606FD0B11E4BC362636F1D48186385
:102B4000636F1D485863606F13468163656D21682C
:102B50002A462431606FFEF7B1FB38B11020C4F86B
:102B600084002020C4F88000012070BD206940B19D
:102B7000216851E8000F40F4807041E80002002A0B
:102B8000F6D12068083050E8001F41F0010140E80C
:102B90000012002AF5D12068083050E8001F41F0EB
:102BA000400140E80012002AF5D1002070BD00006D
:102BB000E72700087D280008A52700082DE9F04731
:102BC000994617460D4604464FF00008089E33E02C
:102BD000701C31D0FEF7AAFCA0EB0900B04218D857
:102BE000BEB120680168490726D5802D24D0402D2C
:102BF00022D0C169C94309070DD4082505622046C2
:102C0000FFF75AFEC4F8845084F878800120BDE8AC
:102C1000F0870320FBE7C069C04300050CD421689E
:102C20004FF4006008622046FFF746FE2020C4F8FB
:102C3000840084F87880ECE72068C06935EA0000F9
:102C400004D00020B842C3D00020E0E70120F9E71B
:102C500070B5224C9EB0E06C40F00100E064E06C86
:102C600000F001001C90E06C40F00100E064E06CBA
:102C7000002500F00100089502261C900096684689
:102C8000FEF726FDA06D40F40030A065A06D07247E
:102C900000F400301C900420CDE9170601201B949D
:102CA000CDE919064FF0904617A93046FEF752FBC2
:102CB0000820179017A91B943046FEF74BFB0948D4
:102CC000074901604FF4E131C0E901150C21C560ED
:102CD000C0E90451FFF738FA1EB070BD0010024081
:102CE000004400406800002038B51848816C41F06D
:102CF00001018164806C174C00F0010000901448C1
:102D000020602046FEF7C0F902206060002080218C
:102D1000A060C4E903016061A0612020E061C001FE
:102D200020622046FEF768FA04F14800002244675A
:102D3000A06211460F20FEF75DFC0F20FEF74CFC51
:102D40002068016841F00601016038BD00100240B2
:102D500058000240F0000020FEE700000FB4054BD1
:102D600010B503A9044A029800F092F910BC5DF86E
:102D700014FB0000B5370008580000207CB50C009B
:102D80001D461646014601D0601E00E00020CDE938
:102D90000010064B6A462946304600F079F9002CAF
:102DA00002D0009A002111707CBD00009D37000800
:102DB00000280DDB4109890001F1E021D1F8001163
:102DC00000F01F0201209040014201D00120704715
:102DD0000020704700280DDB4109890001F1E02146
:102DE000D1F8001200F01F0201209040014201D0F2
:102DF00001207047002070470907090E002804DBF6
:102E000000F1E02080F80014704700F00F0000F19E
:102E1000E02080F8141D70470048704764000020CF
:102E200000B583B09FED060B0A4601468DED000B01
:102E30006846FDF714FD9DED000B03B000BD0000DA
:102E4000000000000000000002E008C8121F08C1D6
:102E5000002AFAD170477047002001E001C1121F1B
:102E6000002AFBD1704700002DE9FF5F82B00021EE
:102E7000DDE90430020DDDF840B0034318D044F61C
:102E80001050A2F2FF3242431514119801281FD0AE
:102E9000A5EB0B00401C5FEA000A4FF000064E4F06
:102EA000DFF83891B046504615D5CAF1000413E05A
:102EB000119801244AA3012801D16FEA0B0102985D
:102EC000119AC0E90031C0E9024206B000F08EB8A4
:102ED000CBF10000DFE704460021404A491842EBED
:102EE0000450CDE9001012E0E00707D032463B461F
:102EF00040464946FDF7D2FA8046894632463B466F
:102F000010461946FDF7CAFA06460F466410002C13
:102F1000EAD1DDE90401DDE90023BAF1000F06DAA8
:102F2000FDF7BCFA42464B46FDF7B8FA05E0FDF75F
:102F30002AFB42464B46FDF726FB04460E4600227E
:102F4000284BFDF7BFFB03D84FF0FF30014607E0E9
:102F50000022254B20463146FDF7F1F9FDF70FFD24
:102F6000102409E0002C0ADB0A220023FDF72CF9CB
:102F7000039B30321A55641E50EA0102F2D1641CE0
:102F8000039AC4F111031444119A012A03D00122B7
:102F900008430DD10AE0084304D000204FF0110B84
:102FA000119072E7A3EB0B056D1E0DE05B4504DD90
:102FB0004FF0000205F1010504E003DA4FF00002D2
:102FC000A5F10105002AECD002981199C0E902315F
:102FD000C0E9004579E70000000014400000F03F20
:102FE000300000000000F0430000E03F30BCBDE8CE
:102FF000C09F30380A2801D2012070470020704756
:103000003EB502F114052C1F231F062909D00829FB
:103010000FD009290DD00A290BD00DA001F07EFA9E
:1030200010E014A2CDE9004502F028FB03280CD0E3
:1030300008E018320094CDE9015211A202F01EFB03
:10304000042802D04FF0FF303EBD00203EBD0000FE
:103050005061727365206F662074696D65206572BA
:10306000726F722028666F726D6174206572726F64
:103070007229210025326425326425326400000063
:103080002532642532642532642E25640000000058
:103090002DE9FF4F95B09A46884606460025EEE199
:1030A000252877D100242746F94A0121039400E01E
:1030B000044316F8013F203B01FA03F01042F7D118
:1030C00030782A2811D06FF02F033078A0F1300229
:1030D000092A16D8039A44F0020402EB820203EB99
:1030E00042021044761C0390EFE758F8042B039239
:1030F000002A03DA504244F40054039044F00204DE
:10310000761C30782E2816D116F8010F44F00404EE
:103110002A280DD06FF02F023078A0F13003092B50
:1031200009D807EB870302EB4303C718761CF3E7C4
:1031300058F8047B761C30786C280FD006DC4C28BD
:1031400017D068280DD06A2814D104E0742810D054
:103150007A280FD10DE044F400140AE044F48014FE
:1031600001E044F440147278824202D104F58014E4
:10317000761C761C307866280BD013DC582877D064
:1031800009DC002875D04528F6D04628F4D0472819
:103190001AD193E118E0632835D0642879D06528E6
:1031A00012D18BE1702873D008DC6728F1D0692830
:1031B0006FD06E280DD06F2806D1ACE073282CD0CC
:1031C000752874D0782853D05246179990476D1CB3
:1031D00054E1C4F30250022809D003280DD0D8F8D6
:1031E000001004280DD00D6008F1040846E1D8F85D
:1031F0000010EA17C1E90052F6E7D8F800100D8078
:10320000F2E70D70F0E718F8041B8DF800100020AD
:103210008DF80100EB46012003E058F804BB4FF0A5
:10322000FF3061074FF0000102D40DE009F1010108
:103230008946B9420FDA8145F8DB1BF809100029ED
:10324000F4D108E009F1010189468142FADB1BF85B
:1032500009100029F6D103985346A0EB090721462F
:103260003846179A00F083FA284400EB090507E076
:1032700044E008E10DE01BF8010B52461799904716
:10328000B9F10109F7D2534621463846179AF2E0C0
:1032900039E00A21C4F302524FF0000B0091022AD8
:1032A00006D058F8040BC117032A09D00AE023E01E
:1032B00008F1070020F00702F2E80201904605E05D
:1032C00000B2C117042A01D140B2C117002906DAA1
:1032D0000A460021404261EB02012D2202E0220554
:1032E00004D52B228DF80420012203E0E20701D04F
:1032F0002022F7E7914657E00A2100E010214FF025
:10330000000B00910BE010214FF0000B44F004047F
:103310000827009103E008204FF0000B0090C4F351
:103320000252022A05D058F8040B0021032A08D0C3
:1033300008E008F1070020F00702F2E802019046D9
:1033400003E080B2042A00D1C0B24FF00009220786
:103350002AD53278702A07D0DDF800C08CF0100C26
:103360005CEA0B0C05D00EE040228DF8042001220F
:1033700008E050EA010306D030238DF804308DF8C0
:10338000052002229146009B83F0080353EA0B03B9
:103390000AD150EA010201D1620705D530228DF829
:1033A00004204FF001097F1E3278582A04D039A238
:1033B0000C920CAA02920BE03BA2F9E75B46009A42
:1033C000FCF702FF0C9B9B5C029A521E0292137048
:1033D00050EA0102F2D1029804A9081A00F1200B68
:1033E000600702D524F4803400E001275F4502DD48
:1033F000A7EB0B0000E0002000EB0B01009003980E
:103400004944401A0390E00306D453462146179AD4
:10341000039800F0ACF90544002706E001A85246E5
:10342000C05D179990476D1C7F1C4F45F6DBE0038C
:103430000CD553462146179A039800F098F9054495
:1034400004E030205246179990476D1C0099481EA1
:1034500000900029F5DC08E00298029952460078B5
:10346000491C0291179990476D1CBBF10001ABF10B
:10347000010BF1DC5BE100F068F90544761C307863
:1034800000287FF40DAE19B0284600F05BB90000AB
:10349000092801003031323334353637383961622A
:1034A00063646566000000003031323334353637EE
:1034B000383941424344454600000000600700D4CB
:1034C000062708F1070020F00700F0E802238046F5
:1034D00003F0004C5FEA0C0001D097A009E0200542
:1034E00001D596A005E0E00701D095A001E0AFF27C
:1034F0004C001390307823F0004365280CD006DC94
:10350000452809D046281DD047287FD13BE06628B2
:1035100018D067287AD136E00021112F01DB112065
:1035200000E0781CCDE9000104A90CA8FFF79CFC81
:10353000DDE90D010C9A4FF0000B07F10109109223
:1035400000914EE04FF000400097CDE9011004A932
:103550000CA8FFF789FCDDE90D020C9B0F994FF0D9
:10356000000B91461093009211B9791C00EB0109F0
:10357000B7EB090003D4C0F1FF3B07F10109A9EB48
:103580000700019042E0012F00DA01270021112FEE
:1035900001DD112000E03846CDE9000104A90CA8A6
:1035A000FFF762FCDDE90D010C9A00914FF0000B72
:1035B000B946109221070FD4009A4A4503DA914682
:1035C00001E0A9F10109B9F1010F05DD109AA9F196
:1035D0000101515C3029F4D0B84202DA10F1040F35
:1035E00003DA0121CDE9011010E0002803DC834457
:1035F000A9EB000102E0411C494500DD8946A0EB32
:103600000B00401C01904FF000400290200705D4B1
:103610000198484502DB4FF0FF30019000208DF803
:103620004B0002980DF14B07B0F1004F25D002205E
:103630000C902B200D90029800280CDA404202904A
:103640002D200D9007E00A210298FDF753F8303144
:10365000029007F8011D0C99481E0C900029F2DC1D
:1036600002980028EFD1791E0D980870307800F08C
:10367000200040F0450007F8020D11A8C01BC01D36
:1036800002901398007800B1012000EB0901019825
:1036900001EBE071029801440398401A401E039028
:1036A000E00306D453462146179A039800F05FF8CA
:1036B00005441398007818B15246179990476D1C2D
:1036C000E00323D553462146179A039800F04FF89C
:1036D00005441BE0BBF1000F07DB0098584504DDF3
:1036E0001098179910F80B0001E0179930205246F6
:1036F000904701980BF1010B401E05F10105019067
:1037000004D12E205246179990476D1CB9F1000143
:10371000A9F10109DEDC05E017F8010B5246179903
:1037200090476D1C0299481E02900029F4DC534614
:103730002146179A03989EE62D0000002B000000FA
:103740002000000030BCBDE8C08F2DE9F0410446E8
:1037500000251E461746880404D405E0394620207B
:10376000B0476D1C641EF9D52846BDE8F0812DE9EF
:10377000F041044600251E469046C80301D5302777
:1037800000E02027880404D505E041463846B047CC
:103790006D1C641EF9D52846BDE8F0814A68002AF0
:1037A00006D00A68531C0B6010704868401E4860C1
:1037B0007047704713B54FF6FF7301226946024800
:1037C000FEF798FD00981CBD6800002010B5002889
:1037D00021D0114B0022001F196803E0814203D859
:1037E0000A4649680029F9D152B11368841A9C42EB
:1037F00004D1006818441060104602E0506000E0F8
:10380000186039B102680B1A934203D10B681A444D
:1038100002604968416010BD5C00002070B506463A
:103820000D4609A0FFF79AFA002405E0315D09A0D2
:10383000FFF794FA641CA4B2AC42F7DBBDE8704019
:1038400005A0FFF78BBA00000D0A496E666F3A209B
:1038500000000000256300000A000000FDF774FE70
:10386000FEF7A9FEFEF7B6FD6B222C492CA0FFF750
:1038700075FAFFF7EDF96E22284935A0FFF76EFAC9
:10388000712226493EA0FFF769FAFDF7A4FB7322D7
:10389000224947A0FFF762FA01F0E2FF78221F49B0
:1038A0004FA0FFF75BFA0F20FFF794FA08B157A477
:1038B00000E057A40F20FFF77BFA08B153A100E006
:1038C00053A1224653A0FFF749FA4FF480725D4995
:1038D0005D48FEF7E9FC03000AD081220F495BA096
:1038E000FFF73CFA0F20FFF775FA38B147A406E05E
:1038F0007F220A4963A0FFF731FAF3E744A40F20BF
:10390000FFF756FA08B141A100E041A122466AA0A2
:10391000FFF724FA00F0A4FCFEE700008A59000833
:103920005B44454255475D2025733A25643A20475C
:1039300050494F20696E697469616C697A61746974
:103940006F6E20636F6D706C657465640D0A0000A6
:103950005B44454255475D2025733A25643A20551E
:1039600041525420636F6E66696775726174696F46
:103970006E20636F6D706C657465640D0A000000E5
:103980005B44454255475D2025733A25643A2053F0
:1039900074617274696E672047505320636F6E665E
:1039A000696775726174696F6E2E2E2E0D0A0000A4
:1039B0005B44454255475D2025733A25643A2047CC
:1039C000505320636F6E66696775726174696F6EBC
:1039D00020636F6D706C657465640D0A00000000F3
:1039E0005B44454255475D2025733A25643A205390
:1039F00074617274696E6720444D4120726563651D
:103A00007074696F6E2E2E2E0D0A000059455300FA
:103A10004E4F00004E56494320444D4120495251DB
:103A200020656E61626C6564206265666F72653ADE
:103A30002025732C2070656E64696E673A202573AB
:103A40000D0A0000C0010020380100205B444542FF
:103A500055475D2025733A25643A20444D41207234
:103A60006563657074696F6E206661696C6564205A
:103A700077697468207374617475733A2025640DD6
:103A80000A0000005B44454255475D2025733A25F6
:103A9000643A20444D4120726563657074696F6EAD
:103AA00020737461727465642073756363657373E6
:103AB00066756C6C790D0A004E56494320444D41A1
:103AC0002049525120656E61626C65643A2025730D
:103AD0002C2070656E64696E673A2025730D0A00AC
:103AE000F0B50B30154D20F007010024144A0FE00B
:103AF00003688B420BD38B4205D95E1A4318476883
:103B0000C3E9006700E04368136002C004E0021DDF
:103B100010680028ECD12046002802D1286808B19E
:103B20000020F0BD064A07481060074A121A22F02A
:103B30000702C0E9002401202860D7E760000020C8
:103B40005C000020C4030020C0050020F0B502780E
:103B50004A6290ED280B002481ED0A0B90ED2A0BB0
:103B6000234681ED0C0B90ED2C0B012681ED0E0B05
:103B7000002200EB83050DE0AF6857B102EB820C29
:103B800001EB8C0CDCF870E3774502D1641CCCF8B7
:103B90007463521CD1F86C739742EDDC5B1C252BCF
:103BA000E6DBC1F86843086840F080000860F0BDBB
:103BB00070B5D0E900329A4234DC2523B3EB820F92
:103BC00030DB012A01DA012242608268C1F86C23ED
:103BD0004268846893001A1F9C4202DAA51A0022E8
:103BE0001AE00425002243689B001B1F9C1802EB6F
:103BF000820300EB830304EB840401EB8404DE689E
:103C0000C4F870635E69C4F878639E69C4F87C6325
:103C1000DB69521CC4F88033AA42E4DB086840F038
:103C20004000086070BD000070B50446C0680861BF
:103C30002069486160698861A069C861E06B0862B9
:103C400094ED120B0D4681ED0C0B94ED140B81EDF0
:103C5000140B94F828004E281BD094ED080B51EC5F
:103C6000100B81F0004100BFC5E9100194F8380045
:103C7000452811D094ED0C0B51EC100B81F0004154
:103C8000C5E91201206CE867286840F4805028607C
:103C900070BDD4E90801E7E7D4E90C01F0E70000C2
:103CA00070B5054690F838000C46412802D05628D9
:103CB00031D007E0216A022001B92062616A01293E
:103CC00000D16062287A4E2829D095ED000B51EC86
:103CD000100B81F0004100BFC4E91001287E452887
:103CE00020D095ED040B51EC100B81F0004100BF8A
:103CF000C4E91201A86A2061E86A6061286BA061CA
:103D0000686BE06195F8390084F87800206840F429
:103D10000070206070BD002020620120D1E7D5E94D
:103D20000001D9E7D5E90401E2E7000070B50546D6
:103D3000007F0C46412802D0562842D007E0216A75
:103D4000022001B92062616A012900D160621C224F
:103D50002946201DFCF779FA95F828004E2834D022
:103D600095ED080B51EC100B81F00041C4E91001F6
:103D700095F8380045282BD095ED0C0B51EC100B25
:103D800081F00041C4E9120195ED100B9FED121B6B
:103D900084ED160B95ED100B53EC112B51EC100B21
:103DA000FCF77CFBC4E9180195ED120B84ED1A0BAE
:103DB00095F8590084F87800206840F4006020608D
:103DC00070BD002020620120C0E7D5E90801CDE7E1
:103DD000D5E90C01D6E700006F1283C0CAA1FD3FF0
:103DE00090ED000B81ED1A0B90ED040B81ED1C0B97
:103DF00090ED080B81ED160B90ED0C0B81ED180B7F
:103E000090F8390081F87800086840F48060086014
:103E1000704710B50C4601461C22201DFCF715FA10
:103E2000206840F48070206010BD000070B504462A
:103E3000C06808612069486160698861A069C861DB
:103E4000E06B086294ED120B0D4681ED0C0B94EDC6
:103E5000140B81ED140B94F828004E2819D094ED22
:103E6000080B51EC100B81F0004100BFC5E91001B7
:103E700094F8380045280FD094ED0C0B51EC100B42
:103E800081F00041C5E91201286840F00100286076
:103E900070BDD4E90801E9E7D4E90C01F2E7F0B517
:103EA00042684A6290ED280B002481ED0A0B90EDE8
:103EB0002A0B234681ED0C0B90ED2C0B012681ED96
:103EC0000E0B002200EB83050DE0AF6857B102EB4B
:103ED000820C01EB8C0CDCF884E0774502D1641C89
:103EE000CCF88860521CD1F880709742EDDC5B1CE6
:103EF000252BE6DBCC67086840F002000860F0BDC7
:103F000070B504004FF0000634D01BA0FEF726FF6A
:103F100020A06168FEF722FF94ED280B21A053EC4E
:103F2000102BFEF71BFF94ED2A0B21A053EC102B56
:103F3000FEF714FF94ED2C0B20A053EC102BFEF792
:103F40000DFF21A0FEF70AFF5FF0000504EB8500DE
:103F5000816819B122A0FEF701FF761C6D1C252D8A
:103F6000F4DB31461FA0FEF7F9FE27A0BDE8704044
:103F7000FEF7F4BE2BA0F9E73D3D3D2047504753E7
:103F800041205061636B65742044756D70203D3D28
:103F90003D0A000046697820547970653A2025640E
:103FA0000A00000050444F503A20252E33660A0084
:103FB00048444F503A20252E33660A0056444F504D
:103FC0003A20252E33660A00536174656C6C69745F
:103FD00065732055736564202850524E293A20009D
:103FE000256420000A546F74616C20536174656C01
:103FF0006C6974657320696E20536F6C7574696F9A
:104000006E3A2025640A00003D3D3D3D3D3D3D3D6D
:104010003D3D3D3D3D3D3D3D3D3D3D3D3D3D3D3DD0
:104020003D3D0A004750475341205061636B657422
:104030003A204E554C4C20706F696E7465722E0A92
:104040000000000070B5D0E900329A4231DC25232F
:10405000B3EB820F2DDB012A01DA01224260826874
:10406000C1F880204268846893001A1F9C4202DADB
:10407000A51A002217E00425002243689B001B1F9D
:104080009C1802EB820300EB830304EB840401EB36
:104090008404DE6844F8846F5E69A6609E69E66009
:1040A000DB69521C2361AA42E7DB086840F0040088
:1040B000086070BD70B50546007F0C46412802D0EF
:1040C00056283AD007E0216A022001B92062616ACD
:1040D000012900D160621C222946201DFCF7B5F899
:1040E00095F828004E282CD095ED080B51EC100BBC
:1040F00081F00041C4E9100195F83800452823D02B
:1041000095ED0C0B51EC100B81F00041C4E912014C
:1041100095ED100B9FED0E1B51EC100B53EC112B7A
:10412000FCF7BCF9C4E9180195ED120B84ED1A0BEC
:10413000206840F00800206070BD0020206201204F
:10414000C8E7D5E90801D5E7D5E90C01DEE70000AD
:104150006F1283C0CAA1FD3F806801F254610B4A0F
:1041600005C148B101280AD002280BD007280CD17C
:10417000114607A000F02CBA04490AA0FAE7034947
:104180000CA0F7E7014910A0F4E77047C002002037
:104190004750545854207573657220696E666F3AA3
:1041A000202573004750545854206572726F723A3C
:1041B000202573004750545854207761726E696E01
:1041C000673A2025730000004750545854206E6F02
:1041D000746963653A2025730000000090ED000BC0
:1041E00081ED1A0B90ED040B81ED1C0B90ED0C0B87
:1041F00081ED180B086840F010000860704700005F
:1042000010B59FED0A0BC2B00C46FF290BDC0A4625
:1042100001466846FCF719F800200DF8040040A993
:104220006846FEF7FDFD42B010BD00000000000032
:104230000000000030B50C4601460020C1B0154614
:10424000FF2C0BDC22466846FBF7FFFF00200DF831
:1042500004002A4640A96846FCF739F841B030BD51
:104260002DED028BADF5D46D20224D494DA0FEF70A
:1042700075FD002401F0FEF95349016001F0FAF9DF
:104280005249416001F0F6F95149816004A801F0FA
:10429000D9FA0DF28C6001F01BF84E4D4E4F0026FE
:1042A000387800902B7835223D494CA0FEF756FD1A
:1042B000287858B104AB802258490DF28C6000F088
:1042C00055FA2E70641C214655A00EE0387800285F
:1042D000E6D0524904AB802280310DF28C6000F0B0
:1042E00045FA3E70641C214651A0FEF737FD0123BC
:1042F00008220DF5CE6105A8FCF7E0FD0DF27C6308
:1043000093E807008DE807000DF5CE6090E80E00F9
:104310004AA001F26C71FEF721FD9DED140B00F037
:1043200073F9B0EE408AF0EE608A9DED160B00F056
:104330006BF98DED000B53EC182B48A0FEF70EFD2A
:104340009DED180B4AA053EC102BFEF707FD9DEDD9
:104350001C0B4CA053EC102BFEF700FD9DED1E0B2B
:104360004DA053EC102BFEF7F9FCDDE923124EA013
:10437000FEF7F4FCDDE9DE1255A0FEF7EFFC9DED43
:10438000120B5EA08DED020B9DED100B8DED000B61
:104390009DED0E0B53EC102BFEF7E0FC80E70000C8
:1043A000D85900085B44454255475D2025733A259E
:1043B000643A206E6D65615F6465636F64655F7408
:1043C0006573740D0A00000089590008B3370008AE
:1043D0001D38000811000020100000205B444542F9
:1043E00055475D2025733A25643A204750535F486E
:1043F000616C665472616E73666572456E64203DD1
:104400002025642C204750535F5472616E7366659B
:1044100072456E64203D2025640D0A00C001002015
:10442000636F756E7432203D2025640A0000000021
:10443000636F756E74203D2025640A000D0ACAB1B1
:10444000BCE425642D253032642D253032642C25C2
:10445000643A25643A25640D0A0000000D0ACEB3C3
:10446000B6C8A3BA25662CBEADB6C825660D0A002F
:104470000D0ABAA3B0CEB8DFB6C8A3BA256620C36A
:10448000D72000000D0ACBD9B6C8A3BA2566206B89
:104490006D2F6820000000000D0ABABDCFF2A3BA4C
:1044A000256620B6C80000000D0AD5FDD4DACAB9C9
:1044B000D3C3B5C4475053CEC0D0C7A3BA25642CCC
:1044C000BFC9BCFB475053CEC0D0C7A3BA256400B8
:1044D0000D0AD5FDD4DACAB9D3C3B5C4B1B1B6B7E4
:1044E000CEC0D0C7A3BA25642CBFC9BCFBB1B1B63E
:1044F000B7CEC0D0C7A3BA25640000000D0A50444F
:104500004F50A3BA25662C48444F50A3BA2566A342
:10451000AC56444F50A3BA25660000000FB40C48B7
:1045200010B54468ADF5806D002C0CD00DF20C4335
:1045300040F2FF316846DDF80824FEF71FFC011E3B
:1045400001DD6846A0470DF5806D10BC5DF814FBD9
:10455000140000202DE9F0478846044600EB0807C8
:1045600000204FF0FF3916460546C2F8009008E0DB
:10457000217824290FD02A2910D000B14D40401CA9
:10458000641CBC42F4D33168002902DA002C00D04C
:104590000020BDE8F0870028FBD1F0E7611DB9429B
:1045A000F1D8E1780D29EED121790A29EBD1102239
:1045B0000221601CFFF73EFE01463A1B3060A8EB6B
:1045C0000200401DA942DED0C6F80090E1E70000DD
:1045D0000FB40C4810B58468ADF5806D002C0CD07C
:1045E0000DF20C4340F2FF316846DDF80824FEF777
:1045F000C5FB011E01DD6846A0470DF5806D10BCAE
:104600005DF814FB1400002010B52DED068BB0EE04
:10461000409AF0EE609A51EC190B9FED11AB53EC00
:104620001A2BFBF7B0FFFCF72EF8FCF71BF841EC58
:10463000180B53EC1A2BFBF731FF53EC192BFBF73C
:1046400022FF9FED091B53EC112BFBF79CFF53EC52
:10465000182BFBF774FEBDEC068B41EC100B10BD64
:1046600000000000000059400000000000004E4023
:1046700070B5054605294FDB3B4C05222168FBF749
:1046800019FE00284FD0052228466168FBF712FE6C
:1046900000284AD005222846A168FBF70BFEE8B3A4
:1046A00005222846E168FBF705FEC0B3052228462F
:1046B0002169FBF7FFFD98B3052228466169FBF7E6
:1046C000F9FD70B305222846A169FBF7F3FD48B355
:1046D00005222846E169FBF7EDFD70B30522284667
:1046E000216AFBF7E7FD48B305222846616AFBF71C
:1046F000E1FD68B305222846A16AFBF7DBFD50B354
:1047000005222846E16AFBF7D5FD38B30522284685
:10471000216BFBF7CFFD20B3002070BD07E008E060
:1047200009E00CE00DE00120F7E70220F5E70420A6
:10473000F3E70820F1E71020EFE704E005E0202090
:10474000EBE74020E9E78020E7E74FF48070E4E7FB
:104750004FF40070E1E74FF48060DEE74FF4006053
:10476000DBE74FF48050D8E724000020F8B50024A0
:104770001D460646009400F0E4FD6CE0641C4028F1
:1047800058D00EDC082832D006DC01281DD00228C3
:1047900020D004285CD125E010282DD0202857D126
:1047A00052E0B0F5806F36D008DC802847D0B0F5F5
:1047B000807F35D0B0F5007F4AD136E0B0F5006F8C
:1047C00024D0B0F5805F43D11BE029460098FFF765
:1047D0002DFB3DE00098FFF793FB29460098FFF77B
:1047E0005EFB35E029460098FFF72CFC30E02946B7
:1047F0000098FFF75FFC2BE029460098FFF7EEFCDE
:1048000026E029460098FFF70FFA21E02946009894
:10481000FFF78CFA1CE029460098FFF7E1FA17E051
:1048200029460098FFF7F5FA12E029460098FFF7AD
:1048300037FA0DE029460098FFF7BAF908E0294653
:104840000098FFF783F903E029460098FFF784FCFE
:104850000098FEF7BBFF6946304600F061FD002876
:104860008CD12046F8BD000070B50D46064690B0CC
:104870001446B8211046FBF701FD2946304600F0EA
:10488000D7FF0DF1300C04F1B00304F1A80204F1DC
:10489000A00104F134008CE80F00031F0DF1200C7F
:1048A0007C3A783910388CE80F00031F0DF1100C9A
:1048B000103A103910388CE80F00031F103A1039E5
:1048C000201D8DE80F00234607A22946304600F040
:1048D000D5FE112805D013A0FFF720FE002010B050
:1048E00070BD0120FBE700002442444753412C25C2
:1048F000432C25642C25642C25642C25642C2564EC
:104900002C25642C25642C25642C25642C25642CF2
:1049100025642C25642C25642C25662C25662C25E5
:10492000662A00004244475341207061727365203B
:104930006572726F7221000070B50D46064692B026
:1049400014465C211046FBF799FC2946304600F0DE
:104950006FFF04F158031A1F0DF1380C111F04F1F9
:1049600048008CE80F00031F0DF1280C143A14398D
:1049700014388CE80F00031F0DF1180C143A143989
:1049800014388CE80F00031F0DF1080C143A143989
:1049900014388CE80F00011F201DCDE900012346CB
:1049A0000E4A2946304600F069FE6168A368890016
:1049B0000A1F8B4201DA991A00E00421032202EB5C
:1049C0008101884201DB132805DD05A0FFF7A6FD64
:1049D000002012B070BD0120FBE70000705A0008F3
:1049E0004244475356207061727365206572726F3E
:1049F0007221000070B50D460646CEB014468021E7
:104A00001046FBF73BFC2946304600F011FF0DF144
:104A1000240C04F1780304F1700204F1680104F13C
:104A200060008CE80F000DF1140C203B203A203977
:104A300020388CE80F00031F0DF1040C183A1839C8
:104A400018388CE80F00083800900DAB0CA22946EE
:104A5000304600F013FE0E2801D016A009E00DA884
:104A6000FBF717FC014622460DA8FEF7C9FA28B14C
:104A700015A0FFF753FD00204EB070BD0120FBE7ED
:104A800024474E4747412C25732C25662C25432C63
:104A900025662C25432C25642C25642C25662C2585
:104AA000662C25432C25662C25432C25662C256455
:104AB0002A000000474E474741207061727365200D
:104AC0006572726F72210000474E4747412074693A
:104AD0006D65207061727365206572726F7221005E
:104AE00070B50D460646C6B0144640211046FBF789
:104AF000C5FB2946304600F09BFE04F139030DF159
:104B0000080C5A1E06A904F118008CE80F0004F1E5
:104B100010011038CDE9000123460DA22946304688
:104B200000F0ACFD072801D011A00AE006A8FBF7B1
:104B3000B0FB014604F11C0206A8FEF761FA28B199
:104B400010A0FFF7EBFC002046B070BD0120FBE792
:104B500024474E474C4C2C25662C25432C25662C8F
:104B600025432C25732C25432C25432A00000000C7
:104B7000474E474C4C207061727365206572726FAE
:104B800072210000474E474C4C2074696D652070BF
:104B900061727365206572726F72210070B50D4687
:104BA0000646CEB0144660211046FBF767FB294647
:104BB000304600F03DFE04F15900411ECDE90B10D6
:104BC00004F15002CDE90942201D011DCDE9071075
:104BD00004F14803103ACDE90523183A0292343023
:104BE0002831CDE90310283B1C38CDE900030DAB7B
:104BF0000FA22946304600F041FD0D2803D00E28B3
:104C000001D018A009E00DA8FBF743FB014622469E
:104C10000DA8FEF7F5F928B117A0FFF77FFC0020DB
:104C20004EB070BD2068643020600120F8E70000BD
:104C300024474E524D432C25732C25432C25662C9E
:104C400025432C25662C25432C25662C25662C25F2
:104C500032642532642532642C25662C25432C25AC
:104C6000432A0000474E524D432070617273652005
:104C70006572726F72210000474E524D4320746975
:104C80006D65207061727365206572726F722100AC
:104C900070B50D46064688B0144640211046FBF715
:104CA000EDFA2946304600F0C3FD04F139030DF159
:104CB000100C5A1E04F1300104F128008CE80F009A
:104CC000193B203A203920388DE80F0023460FA2E7
:104CD0002946304600F0D2FC092801D014A00EE08D
:104CE000207A54280AD1207E4D2807D194F8280034
:104CF0004E2803D194F838004B2805D011A0FFF7B7
:104D00000DFC002008B070BD0120FBE724474E5683
:104D100054472C25662C25432C25662C25432C2511
:104D2000662C25432C25662C25432C25432A000080
:104D3000474E565447207061727365206572726FDA
:104D400072210000474E56544720706172736520EF
:104D50006572726F722028666F726D617420657261
:104D6000726F72292100000070B50D460646C8B06A
:104D700014461C211046FBF781FA2946304600F004
:104D800057FD0DF1040C47AB46AA45A9201D8CE840
:104D90000F00001D009005AB0EA22946304600F022
:104DA0006DFC45990628A1F26C71216001D011A01B
:104DB00009E005A8FBF76DFA0146224605A8FEF7B3
:104DC0001FF928B110A0FFF7A9FB002048B070BD63
:104DD0000120FBE724474E5A44412C25732C2532F1
:104DE000642C2532642C2534642C2532642C253225
:104DF000642A0000474E5A44412070617273652056
:104E00006572726F72210000474E5A4441207469E6
:104E10006D65207061727365206572726F7221001A
:104E200070B50D460646CEB0144680211046FBF7FD
:104E300025FA2946304600F0FBFC0DF1240C04F164
:104E4000780304F1700204F1680104F160008CE859
:104E50000F000DF1140C203B203A203920388CE84B
:104E60000F00031F0DF1040C183A183918388CE89C
:104E70000F00083800900DAB0CA22946304600F018
:104E8000FDFB0E2801D016A009E00DA8FBF701FAE2
:104E9000014622460DA8FEF7B3F828B115A0FFF78A
:104EA0003DFB00204EB070BD0120FBE7244750477A
:104EB00047412C25732C25662C25432C25662C2553
:104EC000432C25642C25642C25662C25662C254333
:104ED0002C25662C25432C25662C25642A000000F1
:104EE0004750474741207061727365206572726F49
:104EF0007221000047504747412074696D6520705A
:104F000061727365206572726F72210070B50D4613
:104F1000064690B01446B8211046FBF7AFF9294673
:104F2000304600F085FC0DF1300C04F1B00304F1C3
:104F3000A80204F1A00104F134008CE80F00031F63
:104F40000DF1200C7C3A783910388CE80F00031FE3
:104F50000DF1100C103A103910388CE80F00031FB7
:104F6000103A1039201D8DE80F00234607A229466C
:104F7000304600F083FB112805D013A0FFF7CEFACE
:104F8000002010B070BD0120FBE70000244750470F
:104F900053412C25432C25642C25642C25642C2579
:104FA000642C25642C25642C25642C25642C256414
:104FB0002C25642C25642C25642C25642C25662C3A
:104FC00025662C25662A0000475047534120706112
:104FD000727365206572726F7221000070B50D46A4
:104FE000064692B014465C211046FBF747F9294665
:104FF000304600F01DFC04F158031A1F0DF1380C67
:10500000111F04F148008CE80F00031F0DF1280C5C
:10501000143A143914388CE80F00031F0DF1180CE2
:10502000143A143914388CE80F00031F0DF1080CE2
:10503000143A143914388CE80F00011F201DCDE9F3
:10504000000123460E4A2946304600F017FB6168EE
:10505000A36889000A1F8B4201DA991A00E0042133
:10506000032202EB8101884201DB132805DD05A044
:10507000FFF754FA002012B070BD0120FBE70000DA
:10508000B45A000847504753562070617273652028
:105090006572726F7221000070B50D460646CEB083
:1050A000144660211046FBF7E9F82946304600F027
:1050B000BFFB04F15900411ECDE90B1004F1500271
:1050C000CDE90942201D011DCDE9071004F1480377
:1050D000103ACDE90523183A029234302831CDE94F
:1050E0000310283B1C38CDE900030DAB0FA2294665
:1050F000304600F0C3FA0D2803D00E2801D018A0C6
:1051000009E00DA8FBF7C5F8014622460DA8FDF7FA
:1051100077FF28B117A0FFF701FA00204EB070BD4D
:105120002068643020600120F8E7000024475052D6
:105130004D432C25732C25432C25662C25432C25EB
:10514000662C25432C25662C25662C2532642532B9
:10515000642532642C25662C25432C25432A000027
:105160004750524D43207061727365206572726FB3
:10517000722100004750524D432074696D652070C4
:1051800061727365206572726F722100FEB506460A
:10519000002010605060906014460D46304600F0CC
:1051A00047FB0A4A04F10801201D8DE80700234649
:1051B00007A22946304600F061FA042804D00AA06C
:1051C000FFF7ACF90020FEBD0120FEBDC0020020AB
:1051D0002447505458542C2532642C2532642C25F5
:1051E00032642C25732A00004750545854207061B3
:1051F000727365206572726F7221000070B50D4682
:10520000064688B0144640211046FBF737F8294679
:10521000304600F00DFB0DF10C0C04F1380304F1E5
:10522000300204F1280104F120008CE80F00183A44
:10523000183918388DE8070023460FA22946304652
:1052400000F01CFA082801D013A00EE0207A5428A0
:105250000AD1207E4D2807D194F828004E2803D18A
:1052600094F838004B2805D010A0FFF757F900201C
:1052700008B070BD0120FBE72447505654472C2549
:10528000662C25432C25662C25432C25662C25438E
:105290002C25662C25432A00475056544720706120
:1052A000727365206572726F722100004750565408
:1052B00047207061727365206572726F7220286674
:1052C0006F726D6174206572726F72292100000027
:1052D00070B50646002500F0CDF9C468FF2C01DC4E
:1052E0004FF4807414213046FAF7C8FF2046FEF7C9
:1052F000F7FBB06018B10125F460284670BD02A02C
:10530000FFF70CF9F9E70000496E7375666669638B
:1053100069656E74206D656D6F7279210000000003
:1053200010B502460068002448B143680B60046869
:105330008168116009B900215160FEF747FA2046E3
:1053400010BD2DE9F0411446884607460026FD6849
:10535000A54200DB25462A464146384600F006F8BD
:105360000644641BF3D13046BDE8F0812DE9FC5FB3
:105370000446174600690025E26838442E469042EC
:1053800000DB2661A268206910443A46FAF75DFF07
:1053900020694FF4805938444FF4006A4FF4806B11
:1053A000206120696A46411BA0682844FFF7D2F8B3
:1053B000070021D0009800286ADB20696A1C411B85
:1053C000A068491E1044FFF753F901900C20FEF726
:1053D00087FB5FEA000878D0C8F80460019840288D
:1053E00074D019DC082872D011DC012834D00228CE
:1053F0004FD0042849D16BE035B12069421B2261AE
:10540000A0684119FAF721FF284600F02FB91028AB
:105410006FD0202839D1FCE058456BD008DC8028BB
:1054200069D0B0F5807F67D0B0F5007F2DD1BBE0AB
:10543000504573D0484528D18020FEF751FB4146A6
:10544000C8F80400021E6AD0C8F80090A068394667
:105450002844FFF7CFFA2CE08020FEF741FB4146BD
:10546000C8F80400021EEED00121C8F80010A068A0
:1054700039462844FFF7D4FC1BE000BFD8F80400ED
:1054800018B1FEF7A3F9C8F804604046FEF79EF98C
:10549000D4E0B820FEF724FB4146C8F80400021E01
:1054A0003DD00221C8F80010A06839462844FFF713
:1054B0002DFD0028E2D0606808B1C0F80880C4F86B
:1054C0000480206800286ED0B6E0BCE07EE014E0E6
:1054D0005C20FEF705FB4146C8F80400021E1ED002
:1054E0000421C8F80010A06839462844FFF776FD6B
:1054F000DFE715E035E07AE043E06020FEF7F0FA00
:105500004146C8F80400021E09D00821C8F800105E
:10551000A06839462844FFF7BFFDCAE711E077E0ED
:105520004020FEF7DDFA4146C8F80400021E6FD0A5
:105530001021C8F80010A06839462844FFF75EFE25
:10554000B7E76020FEF7CCFA4146C8F80400021E17
:1055500076D0C8F800A0A06839462844FFF71EFBA3
:10556000A7E74020FEF7BCFA4146C8F80400021E37
:1055700066D0C8F800B0A06839462844FFF788FB19
:1055800097E71C20FEF7ACFA4146C8F80400021E5B
:1055900056D04FF48070C8F80000A06839462844FF
:1055A000FFF7E2FB85E745E04020FEF799FA414628
:1055B000C8F80400021E43D04FF40070C8F8000081
:1055C000A06839462844FFF78BFA72E75C20FEF7A3
:1055D00087FA4146C8F80400021E31D04021C8F8BD
:1055E0000010A06839462844FFF7A6F961E7B82003
:1055F000FEF776FA4146C8F80400021E20D080214A
:10560000C8F80010A06839462844FFF72DF950E784
:1056100016E00C20FEF764FA4146C8F80400021EAA
:105620000ED02021C8F80010A06839462844FFF7A2
:10563000ADFD3EE7C4F80080C8F808603D44B0E620
:105640000846FEF7C3F803A0FEF768FF4FF0FF30EF
:10565000DBE60000496E73756666696369656E74A2
:10566000206D656D6F727921000000003CBCBDE8C3
:10567000C09F000000487047140000200FB42DE9BF
:10568000F84F044645184FF000090DA84FF00108E7
:10569000CA46CB460090B0E04046B8F1010F07D0B3
:1056A00002280FD0032812D0B8F1040F06D11DE054
:1056B000252F04D014F8010BB8422BD19AE04FF0FB
:1056C000020897E04FF00009B2464FF00308FAF7DE
:1056D000AFFD0068C05D20284ED05046564505D924
:1056E000A6EB0A010A22FEF7A5FD81462646B9F17E
:1056F000000F0BD10C980178632901D043290AD1FE
:1057000021784278914206D04FF0010906EB090456
:10571000AC4209D977E0417829B12A1B3046FAF723
:10572000BFFD040000D12C46AC426CD80C984FF061
:1057300001080BF1010B0078A4EB0609632812D0D5
:1057400008DC43280FD0452827D0472825D05328E8
:1057500031D112E0652820D066281ED067281CD0E1
:10576000732828D109E00099B9F1000F80C9009190
:1057700020D007B3307838703CE0009980C90091A0
:10578000B9F1000116D0B7B10A4631463846FAF7EA
:105790005CFD002007F809002CE0009980C9009109
:1057A000B9F1000106D037B13046FEF729FD87ED8B
:1057B000000B1FE0F7B9009980C90091D7B1B9F18A
:1057C000000117D06F2810D006DC58280BD06428B1
:1057D00007D0692817D104E0752802D0782812D1A3
:1057E00001E00A2202E0102200E008223046FEF723
:1057F00021FD38600C98401C0C900C9E377817B136
:10580000AC42FFF449AF584600F002B85DF814FB13
:1058100018BCBDE8E00FFFF7F9BF7221016000215D
:105820000122C0E90112C1600161416181617047DB
:10583000034A1268002A02D0002900D0104770479E
:105840001400002010B504464FF4CC61FAF716FDA1
:10585000201DFFF7E2FF002020620120606210BDE2
:1058600038B514A0FDF77AFA1DA0FDF777FA0024E9
:10587000C823012269462548FCF79AFC68B1611CDF
:1058800023A0FDF76BFA6420FBF752FD641C142C77
:10589000EEDB2AA0FDF762FA38BD9DF80010A1F1F9
:1058A00020005E2801D80A4600E02E222BA0FDF73A
:1058B00055FAE8E70D0A3D3D3D2054657374696E65
:1058C00067205541525420696E20506F6C6C696E90
:1058D00067204D6F6465203D3D3D0D0A00000000CE
:1058E000417474656D7074696E6720746F207265A1
:1058F00063656976652064617461207669612070F2
:105900006F6C6C696E672E2E2E0D0A003801002018
:105910005B504F4C4C494E475D204E6F2064617484
:1059200061207265636569766564202874727920E8
:1059300025642F3230290D0A000000003D3D3D2036
:10594000506F6C6C696E67205465737420436F6D83
:10595000706C657465203D3D3D0D0A005B504F4CF9
:105960004C494E475D2052656365697665642062E7
:105970007974653A203078253032582028272563FD
:1059800027290D0A0000000070476D61696E000054
:1059900000000000000000000102030406070809DF
:1059A000A0860100400D0300801A060000350C009F
:1059B00040420F0080841E0000093D0000127A0062
:1059C0000024F40000366E010048E801006CDC029F
:1059D00000000000010203046E6D65615F64656391
:1059E0006F64655F746573740000404040404040E0
:1059F00040404041414141414040404040404040A2
:105A00004040404040404040404005020202020207
:105A100002020202020202020202202020202020B2
:105A20002020202002020202020202909090909018
:105A300090101010101010101010101010101010E6
:105A40001010101010020202020202888888888852
:105A50008808080808080808080808080808080846
:105A6000080808080802020202400000EA5900087B
:105A70002442444753562C25642C25642C25642C41
:105A800025642C25642C25642C25642C25642C2568
:105A9000642C25642C25642C25642C25642C256419
:105AA0002C25642C25642C25642C25642C25642A43
:105AB000000000002447504753562C25642C2564D1
:105AC0002C25642C25642C25642C25642C25642C21
:105AD00025642C25642C25642C25642C25642C2518
